:020000020000FC
:10020000EF93FF93E0E8F3E13197F1F7FF91EF917E
:0E02100008952F93F5DF2150E9F72F910895FF
:10060000526F626572742773204661766F726974E7
:10061000653A0D0A312E20202020204F532F436FA2
:100620006D707574657220284D6163206F72205063
:1006300043290D0A322E202020202045452F4345F6
:1006400020436F75727365200D0A332E2020202001
:1006500020486F6262790D0A342E2020202020511C
:10066000756F74650D0A352E20202020204D6F7681
:1006700069650D0A362E202020202052652D6469E0
:1006800073706C6179206D656E750D0A4553433A40
:10069000202020657869740D0A00526F62657274BB
:1006A00020686173206265656E20746F6C642068D9
:1006B0006527732066616C6C656E20696E206C6FB7
:1006C0007665207769746820686973204D61630DD1
:1006D0000A00526F6265727420656E6A6F79656494
:1006E000206469676974616C206C6F676963204579
:1006F000454C333730312061206C6F74200D0A0077
:10070000526F6265727420686173206265656E2045
:100710006B6E6F776E20746F20646162626C65200F
:10072000696E2073616C73612064616E63696E67CA
:10073000200D0A00526F626572742062656C6965F3
:100740007665732027537472656E67746820646FD2
:100750006573206E6F7420636F6D652066726F6DB8
:100760002077696E6E696E672E20596F75722073DF
:1007700074727567676C657320646576656C6F70FD
:1007800020796F757220737472656E677468732751
:10079000200D0A00526F6265727420666F756E6478
:1007A000207468652069646561206F66206C6966E5
:1007B00065206F6E204D6172732066617363696E90
:1007C0006174696E67207769746820686973206650
:1007D00061766F72697465206D6F76696520546FFC
:1007E00074616C20526563616C6C200D0A00446F6B
:0A07F0006E65210D0A000D0A0000DD
:02000000FFC33C
:10080000EFEFEDBFFFE3FEBF2CD01FC057D0113379
:1008100069F0123371F0133379F0143381F015332A
:1008200089F0163391F01B3199F0F0CFEAE9F6E048
:1008300013C0E2EDF6E010C0E0E0F7E00DC0E4E345
:10084000F7E00AC0E4E9F7E007C0E0E0F6E004C042
:10085000EEEEF7E02BD0FFCF29D0E6EFF7E026D081
:10086000D5CF0F9308E0009361060093650604E07E
:10087000009362060AE00093C1070093C60708E1EF
:100880000093A40901E20093A60901E90093A709D6
:1008900003E20093A5090F9108950F930091A10918
:1008A00005FFFCCF1093A0090F9108951F93159198
:1008B000103011F0F2DFFBCF1F9108950F930091DC
:0E08C000A10907FFFCCF1091A0090F91089528
:00000001FF
