:020000020000FC
:10020000EF93FF93E0E8F3E13197F1F7FF91EF917E
:0E02100008952F93F5DF2150E9F72F910895FF
:0200AC00E0C1B1
:02000000FFC13E
:10040000EFEFEDBFFFE3FEBF07E10093E10603E07E
:100410000093E5060FEF009301070FEF009321070C
:1004200001E000934004F4E0E2E500E8019308E213
:10043000008305E10093500408E200933900B0E81E
:10044000A0E000E00C9310E001D0FFCF0F9301E09B
:100450000093890600938A060093820602E00093C7
:10046000900601E00093A2000F91789408950E94F5
:1004700000010E9400010E94000113951C93189531
:00000001FF
