:020000020000FC
:10020000EF93FF93E0E8F3E13197F1F7FF91EF917E
:0E02100008952F93F5DF2150E9F72F910895FF
:02000000FFC13E
:10040000EFEFEDBFFFE3FEBF0DD015E527D001D024
:10041000FDCFEF93FF93E3EFF1E03197F1F7FF9119
:10042000EF9108950F9308E00093810600938506ED
:1004300004E0009382060AE00093C1070093C60718
:1004400008E10093A40A01E20093A60A01E90093DF
:10045000A70A03E20093A50A0F9108950F93009154
:10046000A10A05FFFCCF1093A00A0F9108951F93D6
:100470001591103011F0F2DFFBCF1F9108950F930B
:100480000091A10907FFFCCF1091A0090F910895D9
:00000001FF
