:100000000C94FE000C9416010C9416010C9416012D
:100010000C9416010C9416010C9416010C94160104
:100020000C9416010C9416010C9416010C941601F4
:100030000C9416010C9416010C9416010C941601E4
:100040000C9416010C9416010C9416010C941601D4
:100050000C9416010C9416010C9416010C941601C4
:100060000C9416010C9416010C9416010C941601B4
:100070000C9416010C9416010C9416010C941601A4
:100080000C9416010C9416010C9416010C94160194
:100090000C9416010C9416010C9416010C94160184
:1000A0000C9416010C9416010C9416010C94160174
:1000B0000C9416010C9416010C9416010C94160164
:1000C0000C9416010C9416010C9416010C94160154
:1000D0000C9416010C9416010C9416010C94160144
:1000E0000C9416010C9416010C9416010C94160134
:1000F0000C9416010C9416010C9416010C94160124
:100100000C9416010C9416010C9416010C94160113
:100110000C9416010C9416010C9416010C94160103
:100120000C9416010C9416010C9416010C941601F3
:100130000C9416010C9416010C9416010C941601E3
:100140000C9416010C9416010C9416010C941601D3
:100150000C9416010C9416010C9416010C941601C3
:100160000C9416010C9416010C9416010C941601B3
:100170000C9416010C9416010C9416010C941601A3
:100180000C9416010C9416010C9416010C94160193
:100190000C9416010C9416010C9416010C94160183
:1001A0000C9416010C9416010C9416010C94160173
:1001B0000C9416010C9416010C9416010C94160163
:1001C0000C9416010C9416010C9416010C94160153
:1001D0000C9416010C9416010C9416010C94160143
:1001E0000C9416010C9416010C9416010C94160133
:1001F0000C9416010C9416010C94160111241FBEC8
:10020000CFEFCDBFDFE3DEBF00E00CBF18BE19BEED
:100210001ABE1BBE20E2A0E0B0E201C01D92A430D5
:10022000B207E1F70E94D0010C9473030C94000014
:1002300024E02093010621E02093220625E020936C
:1002400000031092010328E12093020320E030EC28
:100250004CEC54E40E9406030E945D026093180374
:10026000709319030895CF92DF92EF92FF9220E0EE
:1002700030E040E85EE360910020709101208091C1
:100280000220909103200E94EC016B017C0160939D
:10029000002070930120809302209093032020E09F
:1002A00030E040E250E40E94580218167CF020E052
:1002B00030EC4CEC54E4C701B6010E9406030E94E6
:1002C0005D0260931803709319030CC080E090E006
:1002D000A0E2B0E48093002090930120A09302203C
:1002E000B0930320FF90EF90DF90CF900895CF92CE
:1002F000DF92EF92FF9220E030E040E85EE3609111
:1003000000207091012080910220909103200E9492
:10031000EB016B017C0160930020709301208093BE
:1003200002209093032020E030E0A9010E94010305
:1003300088237CF020E030EC4CEC54E4C701B6019B
:100340000E9406030E945D026093180370931903D4
:1003500008C01092002010920120109202201092EA
:100360000320FF90EF90DF90CF90089588E0809376
:1003700061068093650684E0809362068AE080933C
:10038000C1078093C60788E18093A4098DE9809313
:10039000A60981EE8093A70983E38093A5090895B8
:1003A00060E070E0CB010E9418010E94B601C1EA32
:1003B000D9E000EA19E088818823ECF7F801808110
:1003C0008F7D883419F40E943301F5CF8C3499F76E
:1003D0000E947701F0CF5058BB27AA270E94030242
:1003E0000C94C7020E94B90238F00E94C00220F0AB
:1003F00039F49F3F19F426F40C94B6020EF4E095FC
:10040000E7FB0C94B002E92F0E94D80258F3BA1708
:10041000620773078407950720F079F4A6F50C941A
:10042000FA020EF4E0950B2EBA2FA02D0B01B901A4
:1004300090010C01CA01A0011124FF27591B99F05A
:10044000593F50F4503E68F11A16F040A22F232F66
:10045000342F4427585FF3CF469537952795A795B6
:10046000F0405395C9F77EF41F16BA0B620B730B5D
:10047000840BBAF09150A1F0FF0FBB1F661F771FCE
:10048000881FC2F70EC0BA0F621F731F841F48F483
:10049000879577956795B795F7959E3F08F0B0CF0C
:1004A0009395880F08F09927EE0F979587950895F3
:1004B0000E948C0208F481E008950E94E00288F016
:1004C0009F5798F0B92F9927B751B0F0E1F0660F18
:1004D000771F881F991F1AF0BA95C9F714C0B13059
:1004E00091F00E94FA02B1E008950C94FA02672F8D
:1004F000782F8827B85F39F0B93FCCF38695779588
:100500006795B395D9F73EF4909580957095619570
:100510007F4F8F4F9F4F0895990F0008550FAA0BDB
:10052000E0E8FEEF16161706E807F907C0F0121606
:100530001306E407F50798F0621B730B840B950B09
:1005400039F40A2661F0232B242B252B21F408955E
:100550000A2609F4A140A6958FEF811D811D0895FB
:1005600097F99F6780E870E060E008959FEF80EC66
:10057000089500240A941616170618060906089509
:1005800000240A9412161306140605060895092E6F
:100590000394000C11F4882352F0BB0F40F4BF2BDE
:1005A00011F460FF04C06F5F7F4F8F4F9F4F08951E
:1005B00057FD9058440F551F59F05F3F71F0479514
:1005C000880F97FB991F61F09F3F79F087950895F9
:1005D000121613061406551FF2CF4695F1DF08C018
:1005E000161617061806991FF1CF86957105610535
:1005F00008940895E894BB2766277727CB0197F9DD
:1006000008950E948C0208F48FEF08950E94190348
:100610000C94C7020E94B90238F00E94C00220F078
:10062000952311F00C94B0020C94B60211240C9492
:10063000FB020E94D80270F3959FC1F3950F50E022
:10064000551F629FF001729FBB27F00DB11D639F84
:10065000AA27F00DB11DAA1F649F6627B00DA11D2A
:10066000661F829F2227B00DA11D621F739FB00DD0
:10067000A11D621F839FA00D611D221F749F332740
:10068000A00D611D231F849F600D211D822F762FD9
:100690006A2F11249F5750409AF0F1F088234AF0B6
:1006A000EE0FFF1FBB1F661F771F881F9150504022
:1006B000A9F79E3F510580F00C94B0020C94FB0208
:1006C0005F3FE4F3983ED4F3869577956795B795A9
:1006D000F795E7959F5FC1F7FE2B880F911D9695C3
:0A06E000879597F90895F894FFCF6D
:00000001FF
