:100000000C94FE000C941C010C941C010C941C011B
:100010000C941C010C941C010C941C010C941C01EC
:100020000C941C010C941C010C941C010C941C01DC
:100030000C941C010C941C010C943A030C941C01AC
:100040000C941C010C941C010C941C010C941C01BC
:100050000C941C010C941C010C941C010C941C01AC
:100060000C941C010C941C010C941C010C941C019C
:100070000C941C010C941C010C941C010C941C018C
:100080000C941C010C941C010C941C010C941C017C
:100090000C941C010C941C010C941C010C941C016C
:1000A0000C941C010C941C010C941C010C941C015C
:1000B0000C941C010C941C010C941C010C941C014C
:1000C0000C941C010C941C010C941C010C941C013C
:1000D0000C941C010C941C010C941C010C941C012C
:1000E0000C941C010C941C010C941C010C941C011C
:1000F0000C941C010C941C010C941C010C941C010C
:100100000C941C010C941C010C941C010C941C01FB
:100110000C941C010C941C010C941C010C941C01EB
:100120000C941C010C941C010C941C010C941C01DB
:100130000C941C010C941C010C941C010C941C01CB
:100140000C941C010C941C010C941C010C941C01BB
:100150000C941C010C941C010C941C010C941C01AB
:100160000C941C010C941C010C941C010C941C019B
:100170000C941C010C941C010C941C010C941C018B
:100180000C941C010C941C010C941C010C941C017B
:100190000C941C010C941C010C941C010C941C016B
:1001A0000C941C010C941C010C941C010C941C015B
:1001B0000C941C010C941C010C941C010C941C014B
:1001C0000C941C010C941C010C941C010C941C013B
:1001D0000C941C010C941C010C941C010C941C012B
:1001E0000C941C010C941C010C941C010C941C011B
:1001F0000C941C010C941C010C941C0111241FBEB6
:10020000CFEFCDBFDFE3DEBF00E00CBF18BE19BEED
:100210001ABE1BBE11E2A0E0B0E2E8EDF9E000E09A
:100220000BBF02C007900D92A030B107D9F71BBEDB
:100230000E9462020C94EA040C940000E0EEF6E0E6
:1002400087E3808383E384838FEF80930507809324
:10025000200781E0809340040895E0E4F4E088E220
:10026000838B80E8828B85E1808B0895E0E4F4E065
:1002700080E499E3868B978B89E1848B08950E94B3
:100280001E010E942D010E94360108958EE0809388
:10029000A40600008091A806882344F486FF08C0C5
:1002A00085FF08C084FF08C081E208958AE20895AE
:1002B00087E3089584E3089581E308958DE08093B2
:1002C000A40600008091A806882344F486FF08C095
:1002D00085FF08C084FF08C081E2089580E3089587
:1002E00088E3089585E3089582E308958BE0809381
:1002F000A40600008091A806882344F486FF08C065
:1003000085FF08C084FF08C081E2089583E2089554
:1003100089E3089586E3089583E3089587E0809351
:10032000A40600008091A806882344F486FF08C034
:1003300085FF08C084FF08C081E2089584E4089521
:1003400083E4089582E4089581E408950E944601BB
:10035000813251F40E945E01813231F40E947601B3
:10036000813211F40E948E0108958FE08093A106DE
:1003700080EF8093A20688E18093B4068093B5064F
:100380008093B6068093B7060895CF93DF931F92AC
:10039000CDB7DEB700000000198240E050E569E308
:1003A00070E00BB66BBFFA0180810BBE8983898137
:1003B0008823BCF30F90DF91CF9108950E943F01F5
:1003C0000E94C50128E380E090E5A9E3B0E00BB608
:1003D000ABBFFC0120830BBE0E94C5012FE080E073
:1003E00090E5A9E3B0E00BB6ABBFFC0120830BBEE8
:1003F0000E94C50121E080E090E5A9E3B0E00BB6E2
:10040000ABBFFC0120830BBE089584E080930106FE
:1004100081E08093220685E080930003109201031F
:1004200088E1809302030895CF939B01AC01C1E062
:10043000C093000881E1809301088FE08093020857
:1004400060E074E284EF99E40E944E0320E030E023
:1004500040E85CE30E947D040E94C003609328088A
:1004600070932908C0930608C093A2007894CF9196
:100470000895E0E0F1E020812068208310921601C9
:10048000E0E1F1E025E2208329E52093120120E458
:100490002093130120E830E02093140130931501DC
:1004A000809318019093190110921A0188E18093AA
:1004B0001C0183E080931D0110921E0180818068E1
:1004C00080830895CF93DF93CDB7DEB7C150D1407D
:1004D000CDBFDEBF80E8E0E0F0E28E010F5F1F4F8E
:1004E000D80101900D928A95E1F77E0121E8E20E94
:1004F000F11C80E8E0E8F0E2D70101900D928A95C6
:10050000E1F70E94050260E070E08AE793E40E9450
:100510001402C8010E9439020E94B5010E94DE0146
:10052000CF5FDE4F1883C150D1402F2C0F2EE12C0E
:10053000F3E0FF2EF02D0F2EF5E03F2EF02D08E218
:1005400018E0CE0101962C010F2EF8E18F2E992490
:100550009394F02D0F2EF9E1AF2EBB24B394F02D20
:100560000F2EFAE1CF2EDD24D394F02D3E0191E839
:10057000690E711C0E94A6018A3279F4F80180810B
:100580009181F4016082F5012082F6011082F70169
:100590003082F80180839183EDCF8332A1F4F8019A
:1005A00080819181F4014082CF5FDE4F2881C1506C
:1005B000D140F5012083F6011082F7013082F80165
:1005C00080839183D7CF803319F4F7011082D2CF83
:1005D000682F70E09FEC980F993020F5F70130827A
:1005E00060537109072E000C880B990B0E94F103D0
:1005F00020E030E048E452E40E947D049B01AC011D
:1006000060E074E284EF99E40E944E0320E030E061
:1006100040E85CE30E947D040E94C003F80160830F
:100620007183A8CF8154843008F0A4CFF7013082C1
:1006300067537109072E000C880B990B0E94F10378
:1006400020E030E048E452E40E947D049B01AC01CC
:1006500060E074E284EF99E40E944E0320E030E011
:1006600040E85CE30E947D040E94C003F8016083BF
:10067000718380CF1F920F920FB60F92112408B68C
:100680000F9218BE8F9381E080930C088F910F908A
:1006900008BE0F900FBE0F901F9018950E94620326
:1006A0000C9443040E943C0458F00E94350440F02E
:1006B00029F45F3F29F00C942C0451110C94770419
:1006C0000C9432040E94540468F39923B1F3552327
:1006D00091F3951B550BBB27AA2762177307840755
:1006E00038F09F5F5F4F220F331F441FAA1FA9F3EB
:1006F00035D00E2E3AF0E0E832D091505040E695D9
:10070000001CCAF72BD0FE2F29D0660F771F881F39
:10071000BB1F261737074807AB07B0E809F0BB0B2C
:10072000802DBF01FF2793585F4F3AF09E3F510540
:1007300078F00C942C040C9477045F3FE4F3983E1B
:10074000D4F3869577956795B795F7959F5FC9F729
:10075000880F911D9695879597F90895E1E0660FAA
:10076000771F881FBB1F621773078407BA0720F023
:10077000621B730B840BBA0BEE1F88F7E09508958C
:100780000E945C0488F09F5798F0B92F9927B751C1
:10079000B0F0E1F0660F771F881F991F1AF0BA9525
:1007A000C9F714C0B13091F00E947604B1E0089509
:1007B0000C947604672F782F8827B85F39F0B93FFB
:1007C000CCF3869577956795B395D9F73EF49095D8
:1007D0008095709561957F4F8F4F9F4F0895E89456
:1007E00009C097FB3EF490958095709561957F4F79
:1007F0008F4F9F4F9923A9F0F92F96E9BB27939527
:10080000F695879577956795B795F111F8CFFAF436
:10081000BB0F11F460FF1BC06F5F7F4F8F4F9F4F67
:1008200016C0882311F096E911C0772321F09EE8C5
:10083000872F762F05C0662371F096E8862F70E02B
:1008400060E02AF09A95660F771F881FDAF7880F05
:100850009695879597F9089597F99F6780E870E0D6
:1008600060E008959FEF80EC089500240A94161626
:10087000170618060906089500240A94121613068E
:10088000140605060895092E0394000C11F488231C
:1008900052F0BB0F40F4BF2B11F460FF04C06F5F38
:1008A0007F4F8F4F9F4F089557FD9058440F551F0E
:1008B00059F05F3F71F04795880F97FB991F61F0E2
:1008C0009F3F79F087950895121613061406551F59
:1008D000F2CF4695F1DF08C0161617061806991FC5
:1008E000F1CF86957105610508940895E894BB27BA
:1008F00066277727CB0197F908950E9490040C94FE
:1009000043040E94350438F00E943C0420F09523F3
:1009100011F00C942C040C94320411240C947704E0
:100920000E94540470F3959FC1F3950F50E0551F3A
:10093000629FF001729FBB27F00DB11D639FAA2734
:10094000F00DB11DAA1F649F6627B00DA11D661F83
:10095000829F2227B00DA11D621F739FB00DA11DA4
:10096000621F839FA00D611D221F749F3327A00D5E
:10097000611D231F849F600D211D822F762F6A2FFA
:1009800011249F5750409AF0F1F088234AF0EE0F5F
:10099000FF1FBB1F661F771F881F91505040A9F78C
:1009A0009E3F510580F00C942C040C9477045F3F1B
:1009B000E4F3983ED4F3869577956795B795F795C8
:1009C000E7959F5FC1F7FE2B880F911D9695879540
:0809D00097F90895F894FFCF98
:1009D8000008C8088F09520A0F0BC50B710C120DBD
:1009E800A70D2E0EA60E0D0F630FA70FD80FF50F2C
:1009F800FF0FF50FD80FA70F630F0D0FA60E2E0EC2
:100A0800A70D120D710CC50B0F0B520A8F09C808E0
:100A1800000837077006AD05F0043A048E03ED02AE
:100A28005802D1015901F2009C00580027000A0021
:100A380000000A00270058009C00F2005901D1016B
:100A48005802ED028E033A04F004AD05700637072C
:100A5800800000018001000280020003800300047E
:100A6800800400058005000680060007800700084E
:100A78007F08FF087F09FF097F0AFF0A7F0BFF0B2A
:100A88007F0CFF0C7F0DFF0D7F0EFF0E7F0FFF0FFA
:100A98007F0FFF0E7F0EFF0D7F0DFF0C7F0CFF0BEE
:100AA8007F0BFF0A7F0AFF097F09FF087F080008FC
:100AB8008007000780060006800500058004000402
:100AC8008003000380020002800100018000000012
:00000001FF
