:020000020000FC
:02000000FFC13E
:10040000EFEFEDBFFFE3FEBF07E10093E10603E07E
:100410000093E5060FEF009301070FEF009321070C
:1004200001E000934004F4E0E2E500E8019308E213
:10043000008305E10093500408E200933900B0E81E
:10044000A0E022E30C9138E000FD09C03030D1F388
:100450003A95000F08F403950C9319D0F7CF30307C
:1004600089F33A9500FD04C006950C9310D0F7CFA0
:1004700006951F9310E8010F1F91F7CFEF93FF939D
:10048000E0E8F3E13197F1F7FF91EF9108952F93B1
:0A049000F5DF2150E9F72F910895E0
:00000001FF
