:100000000C94FE000C941C010C941C010C941C011B
:100010000C941C010C941C010C941C010C941C01EC
:100020000C941C010C941C010C941C010C941C01DC
:100030000C941C010C941C010C941C010C941C01CC
:100040000C941C010C941C010C941C010C941C01BC
:100050000C941C010C941C010C941C010C941C01AC
:100060000C941C010C941C010C941C010C941C019C
:100070000C941C010C941C010C941C010C941C018C
:100080000C941C010C941C010C941C010C941C017C
:100090000C941C010C941C010C941C010C941C016C
:1000A0000C941C010C941C010C941C010C941C015C
:1000B0000C941C010C941C010C941C010C941C014C
:1000C0000C941C010C941C010C941C010C941C013C
:1000D0000C941C010C941C010C941C010C941C012C
:1000E0000C941C010C941C010C941C010C941C011C
:1000F0000C941C010C941C010C941C010C941C010C
:100100000C941C010C941C010C941C010C941C01FB
:100110000C941C010C941C010C941C010C941C01EB
:100120000C941C010C941C010C941C010C941C01DB
:100130000C941C010C941C010C941C010C941C01CB
:100140000C941C010C941C010C941C010C941C01BB
:100150000C941C010C941C010C941C010C941C01AB
:100160000C941C010C941C010C941C010C941C019B
:100170000C941C010C941C010C941C010C941C018B
:100180000C941C010C941C010C941C010C941C017B
:100190000C941C010C941C010C941C010C941C016B
:1001A0000C941C010C941C010C941C010C941C015B
:1001B0000C941C010C941C010C941C010C941C014B
:1001C0000C941C010C941C010C941C010C941C013B
:1001D0000C941C010C941C010C941C010C941C012B
:1001E0000C941C010C941C010C941C010C941C011B
:1001F0000C941C010C941C010C941C0111241FBEB6
:10020000CFEFCDBFDFE3DEBF00E00CBF18BE19BEED
:100210001ABE1BBE10E2A0E0B0E2E6E5F4E000E0AA
:100220000BBF02C007900D92A231B107D9F71BBED8
:100230000E94B5010C9429020C940000CF93DF9327
:10024000CDB7DEB70E942B010E944B010E946101D5
:10025000DF91CF910895CF93DF93CDB7DEB780EED6
:1002600096E027E3FC01208380EE96E023E3FC0187
:10027000248380E097E02FEFFC01258380E297E064
:100280002FEFFC01208380E494E021E0FC01208337
:10029000DF91CF910895CF93DF93CDB7DEB780E4A0
:1002A00094E028E2FC01238B80E494E020E8FC0148
:1002B000228B80E494E025E1FC01208BDF91CF913B
:1002C0000895CF93DF93CDB7DEB780E494E020E4C8
:1002D00039E3FC01268B378B80E494E029E1FC01B3
:1002E000248BDF91CF910895CF93DF93CDB7DEB705
:1002F0002597CDBFDEBF8D830E94030281E090E58C
:10030000A9E3B0E089839A83AB83BC8389819A8116
:10031000AB81BC812D810BB6ABBFFC0120830BBE32
:100320002596CDBFDEBFDF91CF910895CF93DF93A8
:100330001F921F92CDB7DEB789839A830BC0898144
:100340009A819C012F5F3F4F29833A83FC01808172
:100350000E94740189819A81FC018081882379F748
:100360000F900F90DF91CF910895CF93DF93CDB78A
:10037000DEB72C97CDBFDEBF0E941E010E94030294
:1003800080E090E5A9E3B0E089839A83AB83BC83E6
:1003900089819A81AB81BC8128E30BB6ABBFFC019C
:1003A00020830BBE0E94030280E090E5A9E3B0E049
:1003B0008D839E83AF83B8878D819E81AF81B88501
:1003C0002FE00BB6ABBFFC0120830BBE0E940302E3
:1003D00080E090E5A9E3B0E089879A87AB87BC8786
:1003E00089859A85AB85BC8521E00BB6ABBFFC0146
:1003F00020830BBE0E94030280E090E20E949601DF
:100400000E940302FDCFCF93DF9300D000D0CDB781
:10041000DEB7000000001E8280E090E5A9E3B0E0B6
:1004200089839A83AB83BC8389819A81AB81BC81A8
:100430000BB6ABBFFC0180810BBE8D838D818E839B
:100440008E8188234CF32696CDBFDEBFDF91CF91FE
:060450000895F894FFCFAF
:10045600526F62657274204F6C7374686F6F726E40
:02046600000094
:00000001FF
