S00C00004C6162362E73726563D3
S11300000C9442010C9468010C9468010C946801EE
S11300100C9468010C9468010C9468010C946801B8
S11300200C9468010C9468010C9468010C946801A8
S11300300C9468010C9468010C9468010C94680198
S11300400C9468010C9468010C9468010C94680188
S11300500C9468010C9468010C9468010C94680178
S11300600C9468010C9468010C9468010C94680168
S11300700C9468010C9468010C9468010C94680158
S11300800C9468010C9468010C9468010C94680148
S11300900C9468010C9468010C9468010C94680138
S11300A00C9468010C9468010C9468010C94680128
S11300B00C9468010C9468010C9468010C94680118
S11300C00C9468010C9468010C9468010C94680108
S11300D00C9468010C94F4060C9468010C94680167
S11300E00C9468010C9468010C9468010C946801E8
S11300F00C9468010C9468010C9468010C946801D8
S11301000C9468010C9468010C9468010C946801C7
S11301100C9468010C9468010C9468010C946801B7
S11301200C9468010C9468010C9468010C946801A7
S11301300C9468010C9468010C9468010C94680197
S11301400C9468010C9468010C9468010C94680187
S11301500C9468010C9468010C9468010C94680177
S11301600C9468010C9468010C9468010C94680167
S11301700C9468010C9468010C9468010C94680157
S11301800C9468010C9468010C9468010C94680147
S11301900C9468010C9468010C9468010C94680137
S11301A00C9468010C9468010C9468010C94680127
S11301B00C9468010C9468010C9468010C94680117
S11301C00C9468010C9468010C9468010C94680107
S11301D00C9468010C9468010C9468010C946801F7
S11301E00C9468010C9468010C9468010C946801E7
S11301F00C9468010C9468010C9468019F06EE0647
S1130200EE06EE06EE06EE06EE063506EE06EE0603
S1130210EE06EE06EE06D6052B053E0551056405F1
S113022077058A059D05B005C305EE06EE06EE06C4
S1130230EE06EE06EE06EE06E905FC050F062206BE
S11302400C94B0050C9435060C94C3050C94E90584
S11302500C942B050C949F060C9464050C940F06C7
S11302600C943E050C94D6050C94EE060C942206D0
S11302700C9477050C949D050C9451050C94FC0585
S11302800C948A0511241FBECFEFCDBFDFE3DEBF80
S113029000E00CBF18BE19BE1ABE1BBE12E2A0E0DD
S11302A0B0E2E4E1F2E100E00BBF02C007900D927E
S11302B0AE3BB107D9F71BBE22E2AEEBB2E201C0FE
S11302C01D92A03CB207E1F70E94C5040C940809F2
S11302D00C940000CF93DF93CDB7DEB70E94770173
S11302E00E9497010E94AD01DF91CF910895CF93B1
S11302F0DF93CDB7DEB780EE96E027E3FC012083E1
S113030080EE96E023E3FC01248380E097E02FEF66
S1130310FC01258380E297E02FEFFC01208380E439
S113032094E021E0FC012083DF91CF910895CF93E5
S1130330DF93CDB7DEB780E494E028E2FC01238BA1
S113034080E494E020E8FC01228B80E494E025E141
S1130350FC01208BDF91CF910895CF93DF93CDB72C
S1130360DEB780E494E020E439E3FC01268B378B8C
S113037080E494E029E1FC01248BDF91CF9108957E
S1130380CF93DF931F92CDB7DEB70E94E301898339
S11303908981813211F0898112C00E941C028983F3
S11303A08981813211F089810AC00E9455028983B2
S11303B08981813211F0898102C00E948E020F90DE
S11303C0DF91CF910895CF93DF931F921F92CDB702
S11303D0DEB784EA96E02EE0FC01208388EA96E00A
S11303E0FC018081882F90E089839A8389819A8196
S11303F080789927892B11F48AE219C089819A811E
S113040080749927892B11F487E311C089819A811B
S113041080729927892B11F484E309C089819A8118
S113042080719927892B11F481E301C081E20F9037
S11304300F90DF91CF910895CF93DF931F921F9276
S1130440CDB7DEB784EA96E02DE0FC01208388EA8C
S113045096E0FC018081882F90E089839A838981CA
S11304609A8180789927892B11F480E319C08981B6
S11304709A8180749927892B11F488E311C08981AA
S11304809A8180729927892B11F485E309C08981A7
S11304909A8180719927892B11F482E301C081E24A
S11304A00F900F90DF91CF910895CF93DF931F9218
S11304B01F92CDB7DEB784EA96E02BE0FC012083DF
S11304C088EA96E0FC018081882F90E089839A83F2
S11304D089819A8180789927892B11F483E219C044
S11304E089819A8180749927892B11F489E311C039
S11304F089819A8180729927892B11F486E309C036
S113050089819A8180719927892B11F483E301C031
S113051081E20F900F90DF91CF910895CF93DF93F5
S11305201F921F92CDB7DEB784EA96E027E0FC0164
S1130530208388EA96E0FC018081882F90E08983FB
S11305409A8389819A8180789927892B11F484E48C
S113055019C089819A8180749927892B11F483E4C5
S113056011C089819A8180729927892B11F482E4C0
S113057009C089819A8180719927892B11F481E4BA
S113058001C081E20F900F90DF91CF910895CF9336
S1130590DF931F921F92CDB7DEB781EA96E02FE07A
S11305A0FC01208382EA96E020EFFC01208388E1AD
S11305B090E089839A8384EB96E02981FC0120836F
S11305C085EB96E02981FC01208386EB96E0298166
S11305D0FC01208387EB96E02981FC0120830F90A6
S11305E00F90DF91CF910895CF93DF93CDB7DEB70E
S11305F02C97CDBFDEBF0E946A010E94CF0380E02A
S113060090E5A9E3B0E089839A83AB83BC838981B5
S11306109A81AB81BC8128E30BB6ABBFFC0120837C
S11306200BBE0E94CF0380E090E5A9E3B0E08D8388
S11306309E83AF83B8878D819E81AF81B8852FE07B
S11306400BB6ABBFFC0120830BBE0E94CF0380E03E
S113065090E5A9E3B0E089879A87AB87BC87898551
S11306609A85AB85BC8521E00BB6ABBFFC0120832A
S11306700BBE2C96CDBFDEBFDF91CF910895CF93F3
S1130680DF93CDB7DEB72597CDBFDEBF8D830E9444
S1130690CF0381E090E5A9E3B0E089839A83AB833B
S11306A0BC8389819A81AB81BC812D810BB6ABBFA0
S11306B0FC0120830BBE2596CDBFDEBFDF91CF9119
S11306C00895CF93DF931F921F92CDB7DEB789832E
S11306D09A830BC089819A819C012F5F3F4F2983A4
S11306E03A83FC0180810E943F0389819A81FC0145
S11306F08081882379F70F900F90DF91CF9108952F
S1130700CF93DF93CDB7DEB72897CDBFDEBF8D8300
S11307109E836F8378878D819E810E9461030E94EE
S1130720CF0380E090E5A9E3B0E089839A83AB83AB
S1130730BC8389819A81AB81BC8120EC0BB6ABBFB1
S1130740FC0120830BBE0E94CF038F8198850E94F9
S113075061032896CDBFDEBFDF91CF910895CF937B
S1130760DF9300D01F92CDB7DEB70E94CF0380E0A5
S113077090E5A9E3B0E089839A83AB83BC83898144
S11307809A81AB81BC8121E00BB6ABBFFC01208315
S11307900BBE2496CDBFDEBFDF91CF910895CF93DA
S11307A0DF9300D000D0CDB7DEB7000000001E827A
S11307B080E090E5A9E3B0E089839A83AB83BC83AE
S11307C089819A81AB81BC810BB6ABBFFC0180816E
S11307D00BBE8D838D818E838E8188234CF3269668
S11307E0CDBFDEBFDF91CF9108950F931F93CF93B9
S11307F0DF93CDB7DEB72897CDBFDEBF69837A8399
S11308008B839C832D833E834F83588781E09AE0BA
S113081021E1FC01208308E21AE029813A814B811D
S11308205C8160E070E080E89FE30E94A007DC0147
S1130830CB0120E034E244EF59E4BC01CD010E9435
S11308409208DC01CB0120E030E040E050E4BC0140
S1130850CD010E94A007DC01CB0120E030E040E0A4
S113086051E4BC01CD010E943407DC01CB01BC0181
S1130870CD010E941208DC01CB01F8018083918331
S113088008E61AE020E030E04AE754E46D817E8116
S11308908F8198850E94A007DC01CB0120E034E21F
S11308A044EF59E4BC01CD010E949208DC01CB0164
S11308B020E030E040E852E4BC01CD010E94A007F2
S11308C0DC01CB0120E030E040E85FE3BC01CD0176
S11308D00E943307DC01CB01BC01CD010E94120848
S11308E0DC01CB01F8018083918389E49AE028E05C
S11308F0FC01208300008091BE229091BF22892BAD
S1130900D1F31092BE221092BF222896CDBFDEBF33
S1130910DF91CF911F910F910895CF93DF93CDB7BE
S1130920DEB72897CDBFDEBF69837A838B839C8330
S11309302D833E834F8358872D813E814F81588577
S113094089819A81AB81BC81BC01CD010E94F503F0
S113095088E69AE024E630E0FC012083318389E4D0
S11309609AE028E0FC01208300008091BE2290914F
S1130970BF22892BD1F31092BE221092BF22289657
S1130980CDBFDEBFDF91CF910895CF93DF93CDB775
S1130990DEB7CF5ED109CDBFDEBF81E896E021E0AE
S11309A0FC01208380E09AE021E0FC01208381E0C7
S11309B09AE021E1FC01208382E09AE02FE0FC012F
S11309C0208383E09AE020EAFC01208384E09AE01B
S11309D0FC01108280E49AE025E0FC01208381E49C
S11309E09AE021E1FC01208382E49AE02FE0FC01FB
S11309F0208383E49AE0FC01108284E49AE0FC0101
S1130A00108286E49AE021E0FC01208382EA90E0EF
S1130A1021E0FC01208378940E94C7020E94F40222
S1130A200E94C0018F838F81882F90E0092E000CD3
S1130A30AA0BBB0B43E250E021E230E0841B950B90
S1130A402817390708F4CAC1FC018827E250FF4F70
S1130A508F4F0C94FF0823E333EF4DE054E460E040
S1130A6070ED82E894E40E94F5030E94AF0360E015
S1130A7070E28BE090E20E948003B5C123E333EF80
S1130A804DE054E46CE577E98AE894E40E94F503C8
S1130A900E94AF036EE070E289E190E20E9480035D
S1130AA0A2C123E333EF4DE054E46FE175ED82E935
S1130AB094E40E94F5030E94AF0361E270E28CE2C9
S1130AC090E20E9480038FC123E333EF4DE054E4AE
S1130AD062E570E98BE994E40E94F5030E94AF0398
S1130AE06FE270E28AE390E20E9480037CC123E318
S1130AF033EF4DE054E462E570ED84EA94E40E943F
S1130B00F5030E94AF0362E470E28DE490E20E9478
S1130B10800369C123E333EF4DE054E46FE17DE9E1
S1130B208EEA94E40E94F5030E94AF0360E570E24C
S1130B308BE590E20E94800356C123E333EF4DE03E
S1130B4054E46CE57FEF88EB94E40E94F5030E9483
S1130B50AF036EE570E289E690E20E94800343C130
S1130B6023E333EF4DE054E46CE57FEF83EC94E44E
S1130B700E94F5030E94AF0361E770E28CE790E204
S1130B800E94800330C123E333EF4DE054E46AE074
S1130B9077EA8FEC94E40E94F5030E94AF036FE7B9
S1130BA070E28AE890E20E9480031DC123E333EFE0
S1130BB04DE054E460E070E08CED94E40E94F503B1
S1130BC00E94AF0362E970E28DE990E20E94800323
S1130BD00AC123E333EF4DE054E46FE175E189EE9C
S1130BE094E40E94F5030E94AF0360EA70E28BEA8A
S1130BF090E20E948003F7C023E333EF4DE054E416
S1130C0066EF70EF86EF94E40E94F5030E94AF0351
S1130C1063EB70E28EEB90E20E948003E4C023E376
S1130C2033EF4DE054E460E070ED82E095E40E941F
S1130C30F5030E94AF0361EC70E28CEC90E20E9439
S1130C408003D1C023E333EF4DE054E46CE577E94E
S1130C508AE095E40E94F5030E94AF036FEC70E212
S1130C608AED90E20E948003BEC00000CE01845849
S1130C709F4F24E7EDE0F1E2DC0101900D922A950B
S1130C80E1F784E7E1E8F1E2DE01189601900D92C4
S1130C908A95E1F70E94AF0362EE70E28CEE90E277
S1130CA00E94800319821A8244C01B821C8238C0AD
S1130CB08B819C81880F991F880F991F9E012F5F3C
S1130CC03F4F820F931F0796FC0180819181A2817F
S1130CD0B3812AE939E949E95EE3BC01CD010E9407
S1130CE09208DC01CB01AC01BD019E0124583F4FA9
S1130CF08B819C81880F991F880F991F820F931FE6
S1130D00FC0180819181A281B3819A01AB01BC0174
S1130D10CD010E948D048B819C8101968B839C83E1
S1130D208B819C814D9720F289819A8101968983D8
S1130D309A8389819A8103970CF4B7CF54C0000039
S1130D40CE0184589F4F24E6E5EFF1E2DC010190E7
S1130D500D922A95E1F784E6E9E5F2E2DE011896C0
S1130D6001900D928A95E1F70E94AF0366EF70E25D
S1130D708EEF90E20E9480031D821E822AC08D8124
S1130D809E81880F991F880F991F9E012F5F3F4FE7
S1130D90820F931F0796FC01208131814281538188
S1130DA0BE0164587F4F8D819E81880F991F880FE3
S1130DB0991F860F971FFC0180819181A281B381C5
S1130DC0BC01CD010E948D048D819E8101968D838D
S1130DD09E838D819E81499790F205C081E09AE0BF
S1130DE020E1FC0120831CCE1F920F9200903F0053
S1130DF00F921124009038000F9210923800009046
S1130E003A000F9210923A0000903B000F92109219
S1130E103B002F938F939F93EF93FF93CF93DF9395
S1130E20CDB7DEB781E09AE020E1FC01208381E0C8
S1130E3090E08093BE229093BF22DF91CF91FF91E7
S1130E40EF919F918F912F910F9000923B000F9003
S1130E5000923A000F90009238000F9000923F00E9
S1130E600F901F9018955058BB27AA270E944B0734
S1130E700C9458080E944A0838F00E94510820F047
S1130E8039F49F3F19F426F40C9447080EF4E095C6
S1130E90E7FB0C944108E92F0E94690858F3BA173C
S1130EA0620773078407950720F079F4A6F50C947C
S1130EB08B080EF4E0950B2EBA2FA02D0B01B9016F
S1130EC090010C01CA01A0011124FF27591B99F0BC
S1130ED0593F50F4503E68F11A16F040A22F232FC8
S1130EE0342F4427585FF3CF469537952795A79518
S1130EF0F0405395C9F77EF41F16BA0B620B730BBF
S1130F00840BBAF09150A1F0FF0FBB1F661F771F2F
S1130F10881FC2F70EC0BA0F621F731F841F48F4E4
S1130F20879577956795B795F7959E3F08F0B0CF6D
S1130F309395880F08F09927EE0F97958795089554
S1130F400E94B4070C9458080E94510858F00E945B
S1130F504A0840F029F45F3F29F00C9441085111EC
S1130F600C948C080C9447080E94690868F3992330
S1130F70B1F3552391F3951B550BBB27AA27621791
S1130F807307840738F09F5F5F4F220F331F441F9E
S1130F90AA1FA9F335D00E2E3AF0E0E832D09150D2
S1130FA05040E695001CCAF72BD0FE2F29D0660FBF
S1130FB0771F881FBB1F261737074807AB07B0E802
S1130FC009F0BB0B802DBF01FF2793585F4F3AF008
S1130FD09E3F510578F00C9441080C948C085F3FB7
S1130FE0E4F3983ED4F3869577956795B795F7958E
S1130FF09F5FC9F7880F911D9695879597F9089576
S1131000E1E0660F771F881FBB1F62177307840711
S1131010BA0720F0621B730B840BBA0BEE1F88F720
S1131020E09508950E94710888F09F5798F0B92FB1
S11310309927B751B0F0E1F0660F771F881F991F09
S11310401AF0BA95C9F714C0B13091F00E948B0818
S1131050B1E008950C948B08672F782F8827B85F28
S113106039F0B93FCCF3869577956795B395D9F761
S11310703EF490958095709561957F4F8F4F9F4F6B
S1131080089597F99F6780E870E060E008959FEF06
S113109080EC089500240A9416161706180609060B
S11310A0089500240A9412161306140605060895DA
S11310B0092E0394000C11F4882352F0BB0F40F462
S11310C0BF2B11F460FF04C06F5F7F4F8F4F9F4FA2
S11310D0089557FD9058440F551F59F05F3F71F024
S11310E04795880F97FB991F61F09F3F79F087958B
S11310F00895121613061406551FF2CF4695F1DF14
S113110008C0161617061806991FF1CF86957105A3
S1131110610508940895E894BB2766277727CB01D7
S113112097F908950E94A5080C9458080E944A084B
S113113038F00E94510820F0952311F00C944108D6
S11311400C94470811240C948C080E94690870F3CD
S1131150959FC1F3950F50E0551F629FF001729F58
S1131160BB27F00DB11D639FAA27F00DB11DAA1F67
S1131170649F6627B00DA11D661F829F2227B00DB4
S1131180A11D621F739FB00DA11D621F839FA00D3F
S1131190611D221F749F3327A00D611D231F849F8F
S11311A0600D211D822F762F6A2F11249F575040E6
S11311B09AF0F1F088234AF0EE0FFF1FBB1F661F61
S11311C0771F881F91505040A9F79E3F510580F02A
S11311D00C9441080C948C085F3FE4F3983ED4F3DC
S11311E0869577956795B795F795E7959F5FC1F7CE
S11311F0FE2B880F911D9695879597F90895EE0F0C
S1131200FF1F881F8BBF0790F691E02D1BBE19941A
S1071210F894FFCF7C
S1131214313034362E353020487A004336003131AB
S113122430382E373320487A004323362F4462362D
S113123400313137342E363620487A0044360031B2
S11312443234342E353120487A004423362F456213
S11312543600313331382E353120487A0045360092
S1131264313339362E393120487A00463600313448
S113127437392E393820487A004623362F476236C8
S113128400313536372E393820487A004736003154
S11312943636312E323220487A004723362F4162C3
S11312A43600313736302E303020487A004136004B
S11312B4313836342E363620487A004123362F42CC
S11312C4623600313937352E353320487A004236B8
S11312D400323039332E303020487A00433700321C
S11312E43231372E343620487A004323372F446270
S11312F437004279204461727564650053616E64F9
S113130453746F726D00556E6B6E6F776E00486127
S113131470707920426972746864617900A4F0F68B
S113132443A4F0F643A4F0F643A4F0F643A4F0F681
S113133443A4F0F643A4F0F643A4F0F643A4F0F671
S113134443A4F0F643A4F0F643A4F0F64300D024F7
S11313544400D0244400D0244400D0244400D024A5
S11313644400D0244400D0244400D024441FD51283
S1131374441FD512441FD512441FD512441FD5123D
S1131384441FD512441FD512440000DC430000DC82
S1131394433333BB433333BB433333BB433333BBB5
S11313A44333F30D443333BB433333BB433333BB92
S11313B4433333BB433333BB433333BB4333F30D83
S11313C4443333BB433333BB433333BB433333BB84
S11313D4433333BB433333BB433333BB4333F30D63
S11313E4443333BB433333BB433333BB433333BB64
S11313F4433333BB433333BB4333F30D443333BB42
S1131404433333BB435CFF43445CFF434400005C0D
S1131414445CFF434400D0824448F176445CFF4377
S1131424445CFF434400005C445CFF43441FD59286
S11314344400D082445CFF43445CFF43445CFFC3E8
S11314444452D0A44400D0824448F1764400005C61
S1131454441F9DAE441F9DAE4452D0A44400D08288
S1131464441FD5924400D082443333BB433333BB4B
S11314744333F30D4433F30D4433F30D440080BA82
S1131484443333BB433333BB4333F30D4433F30D9E
S11314944433F30D440080BA443333BB433333BB86
S11314A44333F30D4433F30D4433F30D4433F30D59
S11314B44433F30D443333BB433333BB4333F30D6E
S11114C44433F30D4433F30D440080BA440066
S9030000FC
