:020000020000FC
:02000000FFC03F
:100200000FEF009381064AD060E033E040E0000049
:10021000000056D01F3FD9F31317C9F7403041F003
:10022000413049F0423039F0433041F0443049F038
:10023000439537E0ECCF439534E0E9CF43953FE079
:10024000E6CF6030E1F401E0009384061CD01BD0BF
:100250001AD019D018D017D016D015D014D013D06A
:1002600001E8009384060FD00ED00DD00CD00BD037
:100270000AD009D008D007D006D06FEFC6CF70E003
:1002800070938406FFCFEF93FF93F3ECECEC319780
:10029000F1F7FF91EF91089513D0FECF0F930FE088
:1002A0000093A10600EF0093A20608E10093B406B4
:1002B0000093B5060093B6060093B7060F91089514
:1002C0001FEF0EE00093A406000000002091A80696
:1002D00018C00DE00093A406000000002091A806BD
:1002E0001BC00BE00093A406000000002091A806AC
:1002F0001EC007E00093A406000000002091A8069D
:1003000021C027FF1EE026FF17E025FF14E024FF91
:1003100011E01F3F09F5DDCF27FF10E026FF18E0B1
:1003200025FF15E024FF12E01F3FB1F4DACF27FFCD
:100330001FE026FF19E025FF16E024FF13E01F3F12
:1003400059F4D7CF27FF1DE026FF1CE025FF1BE057
:0A03500024FF1AE01F3F01F4089596
:00000001FF
